:100000000C9434000C9451000C9451000C94510049
:100010000C9451000C9451000C9451000C9451001C
:100020000C9451000C9451000C9451000C9451000C
:100030000C9451000C9451000C94A4000C945100A9
:100040000C9451000C9451000C9453000C945100EA
:100050000C9451000C9451000C9451000C945100DC
:100060000C9451000C94510011241FBECFEFD8E026
:10007000DEBFCDBF11E0A0E0B1E0E8EEF8E002C0E5
:1000800005900D92AC30B107D9F721E0ACE0B1E0BA
:1000900001C01D92AC31B207E1F70E940D010C9432
:1000A00072040C9400001F920F9200905F000F9258
:1000B00011248F939F93EF93FF93CF93DF931F921E
:1000C000CDB7DEB786EC90E0FC018081898380911A
:1000D0000C0190910D018130910599F082309105CC
:1000E000E9F0892B09F022C0898180930101809178
:1000F0000C0190910D01019690930D0180930C01DC
:1001000015C089818093000180910C0190910D01AF
:10011000019690930D0180930C0108C08981809312
:10012000020110920D0110920C01000000000F90CE
:10013000DF91CF91FF91EF919F918F910F9000925E
:100140005F000F901F9018951F920F9200905F0014
:100150000F9211242F933F934F935F936F937F934D
:100160008F939F93AF93BF93EF93FF93CF93DF93BF
:10017000CDB7DEB780910E0190910F01A0911001D3
:10018000B09111010196A11DB11D80930E019093B4
:100190000F01A0931001B093110180910E01909175
:1001A0000F01A0911001B091110124EF31E040E066
:1001B00050E0BC01CD010E945004DC01CB01892B31
:1001C0008A2B8B2B69F481E090E0A0E0B0E0809373
:1001D000160190931701A0931801B093190108C05C
:1001E0001092160110921701109218011092190125
:1001F0000000DF91CF91FF91EF91BF91AF919F915F
:100200008F917F916F915F914F913F912F910F90BF
:1002100000925F000F901F901895CF93DF93CDB79A
:10022000DEB784E290E02FEFFC0120838AE290E0C9
:1002300020E8FC01208385EC90E0FC01108284EC36
:1002400090E02FEFFC01208381EC90E028E9FC0195
:10025000208382EC90E026E0FC01208384E490E09F
:1002600022E0FC01208385E490E023E0FC01208370
:1002700087E490E029EFFC0120838EE690E022E005
:10028000FC01208378940E944A010E9402030E948C
:100290009102F9CFCF93DF93CDB7DEB78091000104
:1002A000282F30E088EE93E0289FA001299F500D71
:1002B000389F500D1124CA0199230CF4039695958B
:1002C0008795959587959093060180930501809178
:1002D000030190910401019709F044C085E290E088
:1002E00020EFFC01208320910E0130910F014091FD
:1002F0001001509111018091120190911301A09170
:100300001401B0911501281B390B4A0B5B0B80912E
:10031000050190910601092E000CAA0BBB0B2817B2
:1003200039074A075B07F0F080910E0190910F01A9
:10033000A0911001B09111018093120190931301CB
:10034000A0931401B093150185E290E020EEFC012A
:100350002083809103019091040101969093040100
:10036000809303018091030190910401029709F0A9
:100370003FC020910E0130910F014091100150912A
:1003800011018091120190911301A0911401B0917B
:100390001501281B390B4A0B5B0B809105019091CD
:1003A0000601092E000CAA0BBB0B281739074A07B8
:1003B0005B07F0F080910E0190910F01A091100168
:1003C000B09111018093120190931301A093140135
:1003D000B093150185E290E020ECFC012083809130
:1003E000030190910401019690930401809303010D
:1003F0008091030190910401039709F044C020917A
:100400000E0130910F014091100150911101809126
:10041000120190911301A0911401B0911501281BB4
:10042000390B4A0B5B0B8091050190910601092E57
:10043000000CAA0BBB0B281739074A075B07F8F01B
:1004400080910E0190910F01A0911001B0911101C6
:100450008093120190931301A0931401B09315019E
:1004600085E290E020E8FC012083809103019091D7
:1004700004010196909304018093030104C010923B
:100480001B0110921A0180910301909104010497BD
:1004900009F043C020910E0130910F0140911001ED
:1004A000509111018091120190911301A0911401BA
:1004B000B0911501281B390B4A0B5B0B809105018C
:1004C00090910601092E000CAA0BBB0B28173907C7
:1004D0004A075B07F0F080910E0190910F01A09107
:1004E0001001B09111018093120190931301A09318
:1004F0001401B093150185E290E0FC011082809117
:1005000003019091040101969093040180930301EB
:1005100004C010921B0110921A010000DF91CF91CC
:100520000895CF93DF93CDB7DEB780910101482FB7
:1005300050E028EE33E0429FC001439F900D529F50
:10054000900D11249093080180930701809103017D
:1005500090910401059709F051C08BE290E02BE2E5
:1005600030E0F90120812068FC01208320910E01F8
:1005700030910F01409110015091110180911201B1
:1005800090911301A0911401B0911501281B390B12
:100590004A0B5B0B8091070190910801092E000C1A
:1005A000AA0BBB0B281739074A075B0718F1809184
:1005B0000E0190910F01A0911001B0911101809353
:1005C000120190931301A0931401B09315018BE2D3
:1005D00090E02BE230E0F90120812F77FC012083AD
:1005E00080910301909104010196909304018093FE
:1005F000030104C010921B0110921A010000DF9148
:10060000CF910895CF93DF93CDB7DEB780910201EC
:10061000282F30E088EE93E0289FA001299F500DFD
:10062000389F500D1124CA0199230CF40396959517
:1006300087959595879590930A01809309018091FC
:10064000030190910401069709F049C085E290E00A
:100650002FE0FC01208320910E0130910F01409189
:100660001001509111018091120190911301A091FC
:100670001401B0911501281B390B4A0B5B0B8091BB
:10068000090190910A01092E000CAA0BBB0B281737
:1006900039074A075B07F8F080910E0190910F012E
:1006A000A0911001B0911101809312019093130158
:1006B000A0931401B093150185E290E02EE0FC01B7
:1006C000208380910301909104010196909304018D
:1006D0008093030104C010921B0110921A018091B3
:1006E000030190910401079709F044C020910E0185
:1006F00030910F0140911001509111018091120130
:1007000090911301A0911401B0911501281B390B90
:100710004A0B5B0B8091090190910A01092E000C94
:10072000AA0BBB0B281739074A075B07F8F0809123
:100730000E0190910F01A0911001B09111018093D1
:10074000120190931301A0931401B093150185E257
:1007500090E02CE0FC012083809103019091040142
:100760000196909304018093030104C010921B0131
:1007700010921A018091030190910401089709F0E9
:1007800044C020910E0130910F0140911001509111
:1007900011018091120190911301A0911401B09167
:1007A0001501281B390B4A0B5B0B809109019091B5
:1007B0000A01092E000CAA0BBB0B281739074A07A0
:1007C0005B07F8F080910E0190910F01A09110014C
:1007D000B09111018093120190931301A093140121
:1007E000B093150185E290E028E0FC012083809120
:1007F00003019091040101969093040180930301F9
:1008000004C010921B0110921A0180910301909173
:100810000401099709F040C020910E0130910F01A9
:10082000409110015091110180911201909113019A
:10083000A0911401B0911501281B390B4A0B5B0BD9
:100840008091090190910A01092E000CAA0BBB0BA3
:10085000281739074A075B07D8F080910E0190915D
:100860000F01A0911001B09111018093120190939A
:100870001301A0931401B093150185E290E0FC01EF
:10088000108281E090E0909304018093030104C002
:1008900010921B0110921A010000DF91CF91089570
:1008A000A1E21A2EAA1BBB1BFD010DC0AA1FBB1F74
:1008B000EE1FFF1FA217B307E407F50720F0A21BE6
:1008C000B30BE40BF50B661F771F881F991F1A9453
:1008D00069F760957095809590959B01AC01BD017D
:0808E000CF010895F894FFCF49
:0C08E800010101010001000100010000FD
:00000001FF
