:100000000C9424010C94AC010C9441010C9441011A
:100010000C9441010C94E2010C9441010C944101B7
:100020000C9441010C9441010C9441010C94410148
:100030000C9441010C9441010C9443010C94410136
:100040000C9441010C9441010C9441010C94410128
:100050000C9441010C9441010C9441010C94410118
:100060000C9441010C944101000000000000005F6D
:1000700000000007000700147F147F14242A7F2A41
:10008000122313086462364955225000050300000C
:10009000001C2241000041221C0014083E081408E4
:1000A000083E0808005030000008080808080060F2
:1000B00060000020100804023E5149453E00427F86
:1000C000400042615149462141454B311814127F8D
:1000D0001027454545393C4A494930017109050316
:1000E0003649494936064949291E0036360000007E
:1000F0005636000008142241001414141414004150
:100100002214080201510906324979413E7E11113B
:10011000117E7F494949363E414141227F4141227A
:100120001C7F494949417F090909013E4149497AF2
:100130007F0808087F00417F41002040413F017F48
:10014000081422417F404040407F020C027F7F0420
:1001500008107F3E4141413E7F090909063E415159
:10016000215E7F09192946464949493101017F012C
:10017000013F4040403F1F2040201F3F4038403F4C
:100180006314081463070870080761514945430068
:100190007F41410002040810200041417F00040219
:1001A0000102044040404040000102040020545439
:1001B00054787F48444438384444442038444448C0
:1001C0007F3854545418087E0901020C5252523E92
:1001D0007F0804047800447D40002040443D007FB7
:1001E0001028440000417F40007C041804787C08FB
:1001F00004047838444444387C1414140808141453
:10020000187C7C080404084854545420043F44409B
:10021000203C4040207C1C2040201C3C4030403C86
:1002200044281028440C5050503C4464544C440022
:100230000836410000007F00000041360800100829
:10024000081008000000000011241FBECFEFD8E006
:10025000DEBFCDBF11E0A0E0B1E0E6E5F6E202C00E
:1002600005900D92A234B107D9F723E0A2E4B1E0E2
:1002700001C01D92A137B207E1F70E94BE040C94A1
:1002800029130C9400001F920F9200905F000F92B0
:1002900011242F933F934F935F936F937F938F938B
:1002A0009F93AF93BF93EF93FF93CF93DF93CDB71C
:1002B000DEB78091440190914501A0914601B09133
:1002C00047010196A11DB11D809344019093450102
:1002D000A0934601B093470180914401909145015C
:1002E000A0914601B091470124EF31E040E050E099
:1002F000BC01CD010E94EA0FDC01CB01892B8A2BC6
:100300008B2B69F481E090E0A0E0B0E0809358018D
:1003100090935901A0935A01B0935B0108C01092C9
:1003200058011092590110925A0110925B0100007D
:10033000DF91CF91FF91EF91BF91AF919F918F91FD
:100340007F916F915F914F913F912F910F9000920C
:100350005F000F901F9018951F920F9200905F0002
:100360000F9211242F933F934F935F936F937F933B
:100370008F939F93AF93BF93EF93FF93CF93DF93AD
:10038000CDB7DEB7809161019091620101969093A3
:100390006201809361010E944F080000DF91CF91BC
:1003A000FF91EF91BF91AF919F918F917F916F914D
:1003B0005F914F913F912F910F9000925F000F90AE
:1003C0001F9018951F920F9200905F000F921124BA
:1003D0002F933F934F935F936F937F938F939F934D
:1003E000AF93BF93EF93FF93CF93DF93CDB7DEB778
:1003F00089E290E0FC018081882F90E08074992749
:10040000892B09F079C080915D0190915E01019680
:1004100090935E0180935D0180915D0190915E01FA
:10042000892BB1F4809101010E94F40A80910001AE
:100430000E94F40A809102010E94F40A20910201B4
:100440009091010180910001422F692F0E94B30811
:1004500080915D0190915E010197B1F4809101015D
:100460000E94F40A809100010E94F40A8091020126
:100470000E94F40A209102019091010180910001F3
:10048000422F692F0E94B30880915D0190915E0117
:100490000297B1F4809101010E94F40A8091000159
:1004A0000E94F40A809102010E94F40A2091020144
:1004B0009091010180910001422F692F0E94B308A1
:1004C00080915D0190915E010397B1F480910101EB
:1004D0000E94F40A809100010E94F40A80910201B6
:1004E0000E94F40A20910201909101018091000183
:1004F000422F692F0E94B30880915D0190915E01A7
:100500000497D4F010925E0110925D018091010178
:100510000E94F40A809100010E94F40A8091020175
:100520000E94F40A20910201909101018091000142
:10053000422F692F0E94B30889E290E0FC0180817C
:10054000882F90E080719927892B09F0BDC0809198
:100550005D0190915E01892B19F580910001893030
:1005600020F089E08093000105C0809100018F5F39
:1005700080930001809101010E94F40A80910001A2
:100580000E94F40A809102010E94F40A2091020163
:100590009091010180910001422F692F0E94B308C0
:1005A00080915D0190915E01019719F580910101A3
:1005B000893020F089E08093010105C0809101011C
:1005C0008F5F80930101809101010E94F40A809164
:1005D00000010E94F40A809102010E94F40A209115
:1005E00002019091010180910001422F692F0E9428
:1005F000B30880915D0190915E01029719F5809199
:100600000201893020F089E08093020105C08091C9
:1006100002018F5F80930201809101010E94F40A20
:10062000809100010E94F40A809102010E94F40A64
:10063000209102019091010180910001422F692FC8
:100640000E94B30880915D0190915E010397E1F5EE
:1006500081E090E090936401809363018091540164
:1006600090915501A0915601B09157012CE330E0D3
:1006700040E050E0BC01CD010E94EA0FDA01C9015F
:100680008F5F80930201809102019AE0F92FF81B9D
:100690008F2F8093000181E08093010180910101FF
:1006A0000E94F40A809100010E94F40A80910201E4
:1006B0000E94F40A209102019091010180910001B1
:1006C000422F692F0E94B30889E290E0FC018081EB
:1006D000882F90E080729927892B09F0BBC0809108
:1006E0005D0190915E01892B19F5809100018230A6
:1006F00020F481E08093000105C0809100018150C9
:1007000080930001809101010E94F40A8091000110
:100710000E94F40A809102010E94F40A20910201D1
:100720009091010180910001422F692F0E94B3082E
:1007300080915D0190915E01019719F58091010111
:10074000823020F481E08093010105C08091010195
:10075000815080930101809101010E94F40A8091EF
:1007600000010E94F40A809102010E94F40A209183
:1007700002019091010180910001422F692F0E9496
:10078000B30880915D0190915E01029719F5809107
:100790000201823020F481E08093020105C0809143
:1007A0000201815080930201809101010E94F40AAC
:1007B000809100010E94F40A809102010E94F40AD3
:1007C000209102019091010180910001422F692F37
:1007D0000E94B30880915D0190915E010397D1F56D
:1007E000109264011092630180915401909155011F
:1007F000A0915601B09157012CE330E040E050E069
:10080000BC01CD010E94EA0FDA01C9018F5F80931C
:100810000201809102019AE0F92FF81B8F2F80933B
:10082000000181E080930101809101010E94F40A9E
:10083000809100010E94F40A809102010E94F40A52
:10084000209102019091010180910001422F692FB6
:100850000E94B30889E290E0FC018081882F90E03B
:1008600081709927892B09F074C08091440190917F
:100870004501A0914601B0914701809350019093AA
:100880005101A0935201B093530181E090E0A0E0A8
:10089000B0E08093040190930501A0930601B0930A
:1008A0000701209102019091010180910001422FE6
:1008B000692F0E94B30889E290E0FC018081882FB3
:1008C00090E082709927892B09F043C08091440100
:1008D00090914501A0914601B0914701282F809148
:1008E000500190915101A0915201B0915301F22F0A
:1008F000F81B8F2F8093430180910301682F70E0D4
:1009000080914301282F30E088EE93E0289FA001DA
:10091000299F500D389F500D1124CB01BA010E9420
:10092000D60FCB018093420185E080935C01109249
:100930000401109205011092060110920701209106
:1009400002019091010180910001422F692F0E94C4
:10095000B3080000DF91CF91FF91EF91BF91AF916C
:100960009F918F917F916F915F914F913F912F91C7
:100970000F9000925F000F901F901895CF93DF9318
:10098000CDB7DEB784E290E02FEFFC0120838AE24E
:1009900090E028E8FC0120838BE290E02BE230E03D
:1009A000F90120812767FC01208387E290E02EEB8C
:1009B000FC01208388E290E028E230E0F901208108
:1009C0002064FC01208389E690E022E0FC01208382
:1009D0008DE390E021E0FC01208388E690E024E0B4
:1009E000FC0120838DE690E023E7FC0120838BE36C
:1009F00090E024E0FC0120838CE790E020E4FC01FF
:100A000020838AE790E027EEFC0120838BE790E0CB
:100A1000FC0110828EE790E02EE3FC01208380EB46
:100A200090E023E2FC01208381EB90E024E0FC01D4
:100A3000208384EB90E0FC01108284E490E022E0CB
:100A4000FC01208385E490E023E0FC01208387E41F
:100A500090E029EFFC0120838EE690E022E0FC018B
:100A6000208378940E94A40B2091020190910101AF
:100A700080910001422F692F0E94B3080E9449050E
:100A80000E9401070E9490060E944F080E944C0A93
:100A9000F5CFCF93DF93CDB7DEB780910001282F3C
:100AA00030E088EE93E0289FA001299F500D389FE9
:100AB000500D1124CA0199230CF40396959587953E
:100AC0009595879590930B0180930A018091080179
:100AD00090910901019709F044C085E290E020EF70
:100AE000FC01208320914401309145014091460151
:100AF000509147018091480190914901A0914A018C
:100B0000B0914B01281B390B4A0B5B0B80910A01FA
:100B100090910B01092E000CAA0BBB0B281739076B
:100B20004A075B07F0F08091440190914501A09144
:100B30004601B09147018093480190934901A093E9
:100B40004A01B0934B0185E290E020EEFC01208346
:100B50008091080190910901019690930901809379
:100B600008018091080190910901029709F03FC0A6
:100B70002091440130914501409146015091470137
:100B80008091480190914901A0914A01B0914B0197
:100B9000281B390B4A0B5B0B80910A0190910B01CA
:100BA000092E000CAA0BBB0B281739074A075B0755
:100BB000F0F08091440190914501A0914601B091DF
:100BC00047018093480190934901A0934A01B09353
:100BD0004B0185E290E020ECFC012083809108012C
:100BE00090910901019690930901809308018091E9
:100BF000080190910901039709F044C02091440134
:100C00003091450140914601509147018091480142
:100C100090914901A0914A01B0914B01281B390BD9
:100C20004A0B5B0B80910A0190910B01092E000C7D
:100C3000AA0BBB0B281739074A075B07F8F080910E
:100C4000440190914501A0914601B09147018093E4
:100C5000480190934901A0934A01B0934B0185E26A
:100C600090E020E8FC012083809108019091090127
:100C70000196909309018093080104C010926001CD
:100C800010925F018091080190910901049709F089
:100C900043C020914401309145014091460150915B
:100CA00047018091480190914901A0914A01B0917A
:100CB0004B01281B390B4A0B5B0B80910A01909169
:100CC0000B01092E000CAA0BBB0B281739074A078A
:100CD0005B07F0F08091440190914501A09146019D
:100CE000B09147018093480190934901A0934A0134
:100CF000B0934B0185E290E0FC01108280910801E5
:100D0000909109010196909309018093080104C014
:100D10001092600110925F010000DF91CF91089561
:100D2000CF93DF93CDB7DEB780910101482F50E01C
:100D300028EE33E0429FC001439F900D529F900DDB
:100D4000112490930D0180930C01809108019091E2
:100D50000901059709F051C08BE290E02BE230E0E9
:100D6000F90120812068FC01208320914401309109
:100D70004501409146015091470180914801909171
:100D80004901A0914A01B0914B01281B390B4A0B34
:100D90005B0B80910C0190910D01092E000CAA0BA8
:100DA000BB0B281739074A075B0718F180914401EC
:100DB00090914501A0914601B0914701809348016F
:100DC00090934901A0934A01B0934B018BE290E0CC
:100DD0002BE230E0F90120812F77FC012083809104
:100DE00008019091090101969093090180930801EF
:100DF00004C01092600110925F010000DF91CF915A
:100E00000895CF93DF93CDB7DEB780910201282FED
:100E100030E088EE93E0289FA001299F500D389F75
:100E2000500D1124CA0199230CF4039695958795CA
:100E30009595879590930F0180930E0180910801FD
:100E400090910901069709F049C085E290E02FE0F2
:100E5000FC012083209144013091450140914601DD
:100E6000509147018091480190914901A0914A0118
:100E7000B0914B01281B390B4A0B5B0B80910E0183
:100E800090910F01092E000CAA0BBB0B28173907F4
:100E90004A075B07F8F08091440190914501A091C9
:100EA0004601B09147018093480190934901A09376
:100EB0004A01B0934B0185E290E02EE0FC012083D3
:100EC0008091080190910901019690930901809306
:100ED000080104C01092600110925F018091080126
:100EE00090910901079709F044C020914401309185
:100EF00045014091460150914701809148019091F0
:100F00004901A0914A01B0914B01281B390B4A0BB2
:100F10005B0B80910E0190910F01092E000CAA0B22
:100F2000BB0B281739074A075B07F8F0809144018B
:100F300090914501A0914601B091470180934801ED
:100F400090934901A0934A01B0934B0185E290E050
:100F50002CE0FC0120838091080190910901019609
:100F6000909309018093080104C0109260011092CF
:100F70005F018091080190910901089709F044C030
:100F80002091440130914501409146015091470123
:100F90008091480190914901A0914A01B0914B0183
:100FA000281B390B4A0B5B0B80910E0190910F01AE
:100FB000092E000CAA0BBB0B281739074A075B0741
:100FC000F8F08091440190914501A0914601B091C3
:100FD00047018093480190934901A0934A01B0933F
:100FE0004B0185E290E028E0FC012083809108011C
:100FF000909109010196909309018093080104C022
:101000001092600110925F01809108019091090196
:10101000099709F040C02091440130914501409169
:101020004601509147018091480190914901A0915A
:101030004A01B0914B01281B390B4A0B5B0B809185
:101040000E0190910F01092E000CAA0BBB0B281763
:1010500039074A075B07D8F0809144019091450118
:10106000A0914601B09147018093480190934901B6
:10107000A0934A01B0934B0185E290E0FC011082FD
:1010800081E090E0909309018093080104C01092E0
:10109000600110925F010000DF91CF910895EF92FF
:1010A000FF920F931F93CF93DF93CDB7DEB72091BD
:1010B0004401309145014091460150914701809192
:1010C0004C0190914D01A0914E01B0914F017901D9
:1010D0008A01E81AF90A0A0B1B0BD801C7018838E4
:1010E0009341A105B105B8F12091610130916201F0
:1010F000C901880F991F820F931F880F991F880FAE
:10110000991F092E000CAA0BBB0B809354019093DE
:101110005501A0935601B0935701809144019091DD
:101120004501A0914601B091470180934C019093F5
:101130004D01A0934E01B0934F01109262011092A5
:101140006101209102019091010180910001422FE3
:10115000692F0E94B3080000DF91CF911F910F917A
:10116000FF90EF900895CF93DF9300D01F92CDB7FB
:10117000DEB789836A834B8380915C01882F90E07E
:10118000292F2F938F9380E191E0892F8F9380E116
:1011900091E08F938BE693E0892F8F938BE693E01A
:1011A0008F930E943F100F900F900F900F900F9011
:1011B0000F908981882F90E0292F2F938F9380E1C2
:1011C00091E0892F8F9380E191E08F9383E693E004
:1011D000892F8F9383E693E08F930E943F100F90A7
:1011E0000F900F900F900F900F908A81882F90E0B2
:1011F000292F2F938F9380E191E0892F8F9380E1A6
:1012000091E08F9381E693E0892F8F9381E693E0BD
:101210008F930E943F100F900F900F900F900F90A0
:101220000F908B81882F90E0292F2F938F9380E14F
:1012300091E0892F8F9380E191E08F9389E693E08D
:10124000892F8F9389E693E08F930E943F100F9030
:101250000F900F900F900F900F90809154019091EC
:101260005501A0915601B09157012B2F2F932A2F92
:101270002F93292F2F938F9380E191E0892F8F93C4
:1012800080E191E08F9385E693E0892F8F9385E647
:1012900093E08F930E943F108DB79EB708960FB6CC
:1012A000F894DEBF0FBECDBF88E790E0FC018081DF
:1012B00091819C0140E050E088E19CE9AFE0B0E022
:1012C000BC01CD010E940C10DA01C901885E934077
:1012D000A109B1092B2F2F932A2F2F93292F2F9359
:1012E0008F9380E191E0892F8F9380E191E08F933C
:1012F0008DE693E0892F8F938DE693E08F930E9484
:101300003F108DB79EB708960FB6F894DEBF0FBE9C
:10131000CDBF0E94240D60E080E30E947A0E62E05F
:1013200083E191E00E94570E6AE080E30E947A0E0A
:1013300062E083E191E00E94570E64E180E30E9445
:101340007A0E62E083E191E00E94570E6EE180E345
:101350000E947A0E62E083E191E00E94570E68E2FB
:1013600080E30E947A0E62E083E191E00E94570ED2
:1013700060E080E00E947A0E61E085E191E00E94E9
:10138000570E60E085E20E947A0E61E083E693E00A
:101390000E94570E6DE080E00E947A0E61E08BE1C2
:1013A00091E00E94570E6DE085E20E947A0E61E0A6
:1013B00081E693E00E94570E6BE180E00E947A0E76
:1013C00061E081E291E00E94570E6BE185E20E94AC
:1013D0007A0E61E089E693E00E94570E80915D01EC
:1013E00090915E01039781F4809163019091640173
:1013F000019751F468E280E00E947A0E61E088E291
:1014000091E00E94570E09C068E280E00E947A0EC7
:1014100061E08FE291E00E94570E65E08CE30E944C
:101420007A0E61E08BE693E00E94570E6FE08CE34A
:101430000E947A0E61E087E391E00E94570E69E115
:101440008CE30E947A0E61E085E693E00E94570EDD
:1014500063E28CE30E947A0E61E08BE391E00E94EC
:10146000570E80915D0190915E01982F8DE0989FBD
:10147000802D1124682F8DE20E947A0E61E08FE3A7
:1014800091E00E94570E0E948D0E00000F900F9069
:101490000F90DF91CF910895CF93DF93CDB7DEB753
:1014A00088E790E0FC01808191819C0140E050E060
:1014B00088E19CE9AFE0B0E0BC01CD010E940C10D6
:1014C000DA01C901885E93409093660180936501BB
:1014D00081E090E0A0E0B0E0809358019093590142
:1014E000A0935A01B0935B0188E790E0FC018081F2
:1014F00091819C0140E050E088E19CE9AFE0B0E0E0
:10150000BC01CD010E940C10DA01C901885E934034
:10151000A109B1098D329140A105B105E4F486E23B
:1015200090E0FC018081882F90E080749927892BBE
:1015300061F08091540190915501A0915601B091B4
:101540005701892B8A2B8B2B31F084EB90E02AEF0B
:10155000FC0120833BC088E790E0FC018081918101
:101560009C0140E050E088E19CE9AFE0B0E0BC01C4
:10157000CD010E940C10DA01C901885E9340A109D7
:10158000B1098D329140A105B105E4F486E290E005
:10159000FC018081882F90E080749927892B91F03D
:1015A0008091540190915501A0915601B09157013D
:1015B000892B8A2B8B2B31F484EB90E02DE4FC01FA
:1015C000208304C084EB90E0FC0110822091020192
:1015D0009091010180910001422F692F0E94B30870
:1015E0000000DF91CF910895CF93DF931F92CDB785
:1015F000DEB78983000080EC90E0FC018081882FB9
:1016000090E080729927892BB1F386EC90E02981D4
:10161000FC01208300000F90DF91CF9108951F936C
:10162000CF93DF9300D0CDB7DEB789836A8388E29A
:1016300090E028E230E0F90120812D7FFC01208339
:101640008A81882351F088E290E028E230E0F901B5
:1016500020812860FC01208309C088E290E028E214
:1016600030E0F9012081277FFC01208310E03CC09D
:101670008981882F90E0212F30E047E050E0BA01C7
:10168000621B730B9B0102C0959587952A95E2F723
:1016900081709927892B51F088E290E028E230E0B0
:1016A000F90120812061FC01208309C088E290E0DB
:1016B00028E230E0F90120812F7EFC01208388E2BE
:1016C00090E028E230E0F90120812062FC012083D3
:1016D00088E290E028E230E0F90120812F7DFC01D2
:1016E0002083812F11E0180F183010F288E290E06B
:1016F00028E230E0F90120812260FC012083000013
:101700000F900F90DF91CF911F910895CF93DF93AA
:101710001F92CDB7DEB7898360E089810E940F0BED
:1017200000000F90DF91CF910895CF93DF931F9228
:10173000CDB7DEB7898361E089810E940F0B00007D
:101740000F90DF91CF9108950F931F93CF93DF9365
:10175000CDB7DEB76C970FB6F894DEBF0FBECDBF26
:1017600087E290E027E230E0F90120812260FC016D
:10177000208387E290E027E230E0F90120812460B5
:10178000FC01208387E290E027E230E0F90120812C
:101790002860FC01208387E290E027E230E0F90135
:1017A00020812061FC01208387E290E027E230E085
:1017B000F90120812062FC01208388E290E028E288
:1017C00030E0F90120812460FC01208388E290E070
:1017D00028E230E0F90120812260FC01208380E0D2
:1017E00090E0A0E2B1E489839A83AB83BC8320E0DC
:1017F00030E04AE753E469817A818B819C810E94C1
:10180000350FDC01CB018B8B9C8BAD8BBE8B20E02D
:1018100030E040E85FE36B897C898D899E890E9476
:10182000AF0E88232CF481E090E0988F8F8B3FC01F
:1018300020E03FEF4FE757E46B897C898D899E89D3
:101840000E94300F18164CF520E030E040E251E4E1
:1018500069817A818B819C810E94350FDC01CB01EB
:10186000BC01CD010E94B40EDC01CB01988F8F8B9F
:101870000FC089E190E09A8F898F898D9A8D0197A9
:10188000F1F79A8F898F8F89988D0197988F8F8B19
:101890008F89988D892B69F714C06B897C898D8914
:1018A0009E890E94B40EDC01CB01988F8F8B8F89AB
:1018B000988D9C8F8B8F8B8D9C8D0197F1F79C8FD2
:1018C0008B8F88E290E028E230E0F90120812B7FC5
:1018D000FC01208380E090E0ACE8B2E48D839E833D
:1018E000AF83B88720E030E04AE753E46D817E8122
:1018F0008F8198850E94350FDC01CB0189879A87FB
:10190000AB87BC8720E030E040E85FE369857A85FB
:101910008B859C850E94AF0E88232CF481E090E09B
:101920009E878D873FC020E03FEF4FE757E46985F2
:101930007A858B859C850E94300F18164CF520E027
:1019400030E040E251E46D817E818F8198850E9474
:10195000350FDC01CB01BC01CD010E94B40EDC01CE
:10196000CB019E878D870FC089E190E0988B8F8790
:101970008F8598890197F1F7988B8F878D859E8544
:1019800001979E878D878D859E85892B69F714C069
:1019900069857A858B859C850E94B40EDC01CB011C
:1019A0009E878D878D859E859A8B898B89899A895B
:1019B0000197F1F79A8B898B88E290E028E230E07A
:1019C000F90120812460FC01208388E290E028E274
:1019D00030E0F90120812D7FFC01208381E20E940B
:1019E000860B83E10E94860B86E00E94860B82ECC8
:1019F0000E94860B80E20E94860B89E00E94860B83
:101A000080E80E94860B80E40E94860B00E010E0D4
:101A100005C080E00E94950B0F5F1F4F083FF1E06B
:101A20001F07B8F388E00E94860B8CE00E94860BAB
:101A300000006C960FB6F894DEBF0FBECDBFDF91ED
:101A4000CF911F910F9108950F931F93CF93DF9321
:101A5000CDB7DEB780E80E94860B80E40E94860B3B
:101A600010925F031092600300E010E007C0C8010D
:101A700089599E4FFC0110820F5F1F4F083FF1E014
:101A80001F07A8F30000DF91CF911F910F910895D8
:101A9000CF93DF9300D000D01F92CDB7DEB78B83FA
:101AA0006C834D838C81869586958695882F90E0F2
:101AB00044E5489F9001499F300D11248B81882F68
:101AC00090E0820F931F89599E4F9A8389838D815D
:101AD0008823C9F089819A81FC018081482F8C81FB
:101AE000882F90E09C012770332781E090E002C0AE
:101AF000880F991F2A95E2F7842B282F89819A81D4
:101B0000FC01208319C089819A81FC018081482FC2
:101B10008C81882F90E09C012770332781E090E032
:101B200002C0880F991F2A95E2F780958423282FF9
:101B300089819A81FC01208300000F900F900F9003
:101B40000F900F90DF91CF9108950F931F93CF9334
:101B5000DF9300D000D01F92CDB7DEB78C836D83AA
:101B600010E065C000E04EC08C81882F90E09C01A1
:101B7000205231099D81812F692F0E94CA0F482F61
:101B800050E0C901880F991F880F991F820F931F7A
:101B9000840F951F88599F4F9A83898389819A81E1
:101BA000FC0184918B838B81282F30E09D81802FD5
:101BB000692F0E94CA0F882F90E0A90102C0559595
:101BC00047958A95E2F7CA0181709927892B61F0C0
:101BD00080916003982F900F80915F03810F41E007
:101BE000692F0E94480D0BC080916003982F900FC1
:101BF00080915F03810F40E0692F0E94480D802F84
:101C000001E0080F402F50E08D81282F30E0C901FE
:101C1000880F991F880F991F880F991F821B930B9C
:101C2000481759070CF4A0CF812F11E0180F412F4E
:101C300050E08D81282F30E0C901880F991F880F4F
:101C4000991F820F931F481759070CF48BCF2091CF
:101C50005F039D81892F880F880F890F820F8F5F07
:101C600080935F0380915F03843570F010925F036F
:101C7000209160039D81892F880F880F880F891B11
:101C8000820F8F5F8093600380916003803320F028
:101C900010925F031092600300000F900F900F905E
:101CA0000F900F90DF91CF911F910F910895CF93D7
:101CB000DF9300D01F92CDB7DEB79A8389836B8301
:101CC0000CC089819A819C012F5F3F4F3A83298301
:101CD000FC0180816B810E94A50D89819A81FC01A4
:101CE0008081882371F700000F900F900F90DF9193
:101CF000CF910895CF93DF9300D0CDB7DEB789831E
:101D00006A83898180935F038A81809360030000E6
:101D10000F900F90DF91CF9108950F931F93CF9362
:101D2000DF93CDB7DEB780E80E94860B80E40E9487
:101D3000860B00E010E009C0C80189599E4FFC01E4
:101D400080810E94950B0F5F1F4F083FF1E01F0736
:101D500098F30000DF91CF911F910F9108950E9499
:101D6000E30E08F481E008950E940F0F88F09F575A
:101D700098F0B92F9927B751B0F0E1F0660F771FAF
:101D8000881F991F1AF0BA95C9F714C0B13091F0A5
:101D90000E94290FB1E008950C94290F672F782F26
:101DA0008827B85F39F0B93FCCF38695779567956A
:101DB000B395D9F73EF490958095709561957F4FD6
:101DC0008F4F9F4F0895990F0008550FAA0BE0E819
:101DD000FEEF16161706E807F907C0F012161306ED
:101DE000E407F50798F0621B730B840B950B39F42D
:101DF0000A2661F0232B242B252B21F408950A2693
:101E000009F4A140A6958FEF811D811D089557FD0E
:101E10009058440F551F59F05F3F71F04795880F58
:101E200097FB991F61F09F3F79F0879508951216EF
:101E300013061406551FF2CF4695F1DF08C016169B
:101E400017061806991FF1CF86957105610508944C
:101E50000895E894BB2766277727CB0197F9089563
:101E60000E94E30E08F48FEF08950E94480F0C942F
:101E7000B90F0E94AB0F38F00E94B20F20F09523EB
:101E800011F00C94A20F0C94A80F11240C942A0F9B
:101E90000E94070F70F3959FC1F3950F50E0551FF7
:101EA000629FF001729FBB27F00DB11D639FAA27AF
:101EB000F00DB11DAA1F649F6627B00DA11D661FFE
:101EC000829F2227B00DA11D621F739FB00DA11D1F
:101ED000621F839FA00D611D221F749F3327A00DD9
:101EE000611D231F849F600D211D822F762F6A2F75
:101EF00011249F5750409AF0F1F088234AF0EE0FDA
:101F0000FF1FBB1F661F771F881F91505040A9F706
:101F10009E3F510580F00C94A20F0C942A0F5F3F56
:101F2000E4F3983ED4F3869577956795B795F79542
:101F3000E7959F5FC1F7FE2B880F911D96958795BA
:101F400097F9089597F99F6780E870E060E0089539
:101F50009FEF80EC089500240A94161617061806C1
:101F60000906089500240A9412161306140605069D
:101F70000895092E0394000C11F4882352F0BB0F2E
:101F800040F4BF2B11F460FF04C06F5F7F4F8F4F91
:101F90009F4F0895991B79E004C0991F961708F088
:101FA000961B881F7A95C9F78095089597FB072E91
:101FB00016F4009407D077FD09D00E942B1007FC7F
:101FC00005D03EF4909581959F4F08957095619549
:101FD0007F4F0895A1E21A2EAA1BBB1BFD010DC065
:101FE000AA1FBB1FEE1FFF1FA217B307E407F507C9
:101FF00020F0A21BB30BE40BF50B661F771F881FA5
:10200000991F1A9469F760957095809590959B013A
:10201000AC01BD01CF010895052E97FB1EF400947D
:102020000E94231057FD07D00E94EA0F07FC03D03F
:102030004EF40C94231050954095309521953F4FC8
:102040004F4F5F4F089590958095709561957F4FA4
:102050008F4F9F4F0895AA1BBB1B51E107C0AA1FBA
:10206000BB1FA617B70710F0A61BB70B881F991F39
:102070005A95A9F780959095BC01CD010895AEE0E1
:10208000B0E0E5E4F0E10C9400130D891E8986E0D0
:102090008C831A8309838FEF9FE79E838D83AE0124
:1020A000475E5F4F6F89788DCE0101960E94611067
:1020B000EF81F885E00FF11F10822E96E4E00C947A
:1020C0001C13ABE0B0E0E7E6F0E10C94F2126C0117
:1020D0007B018A01FC0117821682838181FFCCC1BA
:1020E000CE0101963C01F6019381F70193FD8591A4
:1020F00093FF81917F01882309F4BAC1853239F4B5
:1021000093FD859193FF81917F01853229F4B6017A
:1021100090E00E945812E7CF912C212C312CFFE146
:10212000F315D8F08B3279F038F4803279F08332BD
:10213000A1F4232D20611DC08D3261F0803369F43C
:10214000232D216016C0832D8260382EE32DE4609C
:102150003E2E2AC0F32DF8601DC037FC2DC020EDA7
:10216000280F2A3040F08E32B9F436FC81C1232D7D
:102170002064322E19C036FE06C08AE0989E200DDB
:102180001124922E11C0EAE02E9E200D1124222E41
:10219000F32DF0623F2E08C08C3621F4832D806829
:1021A000382E02C0883641F4F70193FD859193FFE4
:1021B00081917F018111B3CF982F9F7D95549330EA
:1021C00028F40C5F1F4F9FE399830DC0833631F0D5
:1021D000833771F0833509F059C021C0F80180813F
:1021E00089830E5F1F4F88248394912C530113C061
:1021F0002801F2E04F0E511CF801A080B18036FE9C
:1022000003C0692D70E002C06FEF7FEFC5010E942F
:102210004D124C018201F32DFF773F2E16C028018D
:1022200022E0420E511CF801A080B18036FE03C0AE
:10223000692D70E002C06FEF7FEFC5010E9442126E
:102240004C01F32DF0683F2E820133FC1BC0822D20
:1022500090E088169906B0F4B60180E290E00E9402
:1022600058122A94F4CFF50137FC859137FE8191FD
:102270005F01B60190E00E94581221102A9421E0DB
:10228000821A91088114910471F7E8C0843611F024
:10229000893641F5F80137FE07C06081718182817E
:1022A00093810C5F1F4F08C060817181072E000C65
:1022B000880B990B0E5F1F4FF32DFF763F2E97FF74
:1022C00009C090958095709561957F4F8F4F9F4F76
:1022D000F0683F2E2AE030E0A3010E949412882E7D
:1022E000861845C0853731F4232D2F7EB22E2AE083
:1022F00030E025C0932D997FB92E8F36C1F018F4A8
:10230000883579F0B5C0803719F0883721F0B0C032
:10231000E92FE061BE2EB4FE0DC0FB2DF460BF2E90
:1023200009C034FE0AC0292F2660B22E06C028E05C
:1023300030E005C020E130E002C020E132E0F801E9
:10234000B7FE07C060817181828193810C5F1F4F4E
:1023500006C06081718180E090E00E5F1F4FA30195
:102360000E949412882E8618FB2DFF773F2E36FE92
:102370000DC0232D2E7FA22E891458F434FE0BC0DD
:1023800032FC09C0832D8E7EA82E05C0B82CA32C4C
:1023900003C0B82C01C0B92CA4FE0FC0FE01E80D8B
:1023A000F11D8081803321F49A2D997EA92E09C0D8
:1023B000A2FE06C0B394B39404C08A2D867809F0B7
:1023C000B394A3FC11C0A0FE06C0B21488F4280C7C
:1023D000922C9B180EC0B21460F4B60180E290E01B
:1023E0000E945812B394F7CFB21418F42B1802C0FD
:1023F000982C212CA4FE10C0B60180E390E00E942E
:102400005812A2FE17C0A1FC03C088E790E002C0EA
:1024100088E590E0B6010CC08A2D867859F0A1FEBF
:1024200002C08BE201C080E2A7FC8DE2B60190E021
:102430000E945812891438F4B60180E390E00E949B
:1024400058129A94F7CF8A94F301E80DF11D808118
:10245000B60190E00E9458128110F5CF222009F4B5
:1024600042CEB60180E290E00E9458122A94F6CF44
:10247000F6018681978102C08FEF9FEF2B96E2E1F4
:102480000C940E13FC010590615070400110D8F7B8
:10249000809590958E0F9F1F0895FC0161507040AC
:1024A00001900110D8F7809590958E0F9F1F089589
:1024B0000F931F93CF93DF93FB01238121FD03C073
:1024C0008FEF9FEF2CC022FF16C0468157812481D9
:1024D00035814217530744F4A081B1819D012F5FDC
:1024E0003F4F318320838C93268137812F5F3F4F6D
:1024F0003783268314C08B01EC01FB010084F18536
:10250000E02D0995892BE1F6D80116968D919C91C5
:102510001797019617969C938E931697CE01DF918D
:10252000CF911F910F910895FA01AA27283051F1F8
:10253000203181F1E8946F936E7F6E5F7F4F8F4FF4
:102540009F4FAF4FB1E03ED0B4E03CD0670F781F53
:10255000891F9A1FA11D680F791F8A1F911DA11D38
:102560006A0F711D811D911DA11D20D009F4689471
:102570003F912AE0269F11243019305D3193DEF619
:10258000CF010895462F4770405D4193B3E00FD0CF
:10259000C9F7F6CF462F4F70405D4A3318F0495DBA
:1025A00031FD4052419302D0A9F7EACFB4E0A6959D
:1025B0009795879577956795BA95C9F700976105BF
:1025C000710508959B01AC010A2E06945795479515
:1025D00037952795BA95C9F7620F731F841F951F0A
:1025E000A01D08952F923F924F925F926F927F921B
:1025F0008F929F92AF92BF92CF92DF92EF92FF9213
:102600000F931F93CF93DF93CDB7DEB7CA1BDB0BBE
:102610000FB6F894DEBF0FBECDBF09942A88398863
:1026200048885F846E847D848C849B84AA84B9846A
:10263000C884DF80EE80FD800C811B81AA81B98176
:10264000CE0FD11D0FB6F894DEBF0FBECDBFED018A
:062650000895F894FFCF8D
:102656000101010505000000010001000100010063
:102666002575007C005665726D3A00416D61723ABF
:102676000056657264653A004175746F6D3A004D97
:10268600616E75616C3A0056454C00632F6D003CD7
:02269600000042
:00000001FF
